:04000000803119280A
:10000800803120007F08F9008B190B1C10288031E3
:10001800A72080310B1015288B1A0B1D152880314D
:10002800D62079082000FF00090080311B28F00144
:10003800F101F201F301F401F501F601F7012000E5
:10004800803126288031CD2080318B170B17720321
:10005800031D2B28F2010130FA007A08F00704305A
:1000680070020318F001700803192B280130FA00F8
:100078007A08F30703307306031D4D28F301710353
:10008800031D4D28013022008E068E1004308E0686
:100098008E110130FA007A08F4077403031D6228F0
:1000A800F40102307106031D6228013022008E0619
:1000B80002308E0604308E0608308E060130FA00B3
:1000C8007A08F50702307506031D7628F501033016
:1000D8007106031D762822000E1002308E060E11BE
:1000E80008308E060130FA007A08F60702307606E4
:1000F800031D2B28F50104307106031D2B2822004F
:100108000E148E100E118E152B2822008C013F30F4
:1001180021008C00073023008C00303024008C0034
:1001280022008E01303021008E0023008E01240031
:100138008E012100951322009D019E0127001216B1
:1001480092168B1508002700121A131EAD281312D9
:100158000800921E0800931E080020008C1ABF2871
:100168007108013EF8007808F10005307106031D9A
:10017800BF28F101F10A2700931208002100150891
:10018800C0391738950020009501F7010B118B161F
:1001980008008031DD208031803189208031803134
:1001A800C22008000B11F201F20A7708200095001E
:0E01B80008006A30210099009A0198010800A1
:020000040001F9
:04000E00E4FFFFDE2E
:00000001FF
